:100000000C946B010C9488010C9488010C94880169
:100010000C9488010C9488010C9488010C9488013C
:100020000C9488010C9488010C9488010C9488012C
:100030000C9488010C9488010C9488010C9488011C
:100040000C946E020C9488010C9488010C94880125
:100050000C9488010C9488010C9488010C948801FC
:100060000C9488010C9488010000000023002600F5
:10007000290000000008000201000003040700003E
:1000800000000000000000000000240027002A00FB
:1000900000000000250028002B00040404040404D0
:1000A0000404020202020202030303030303010227
:1000B00004081020408001020408102001020408F6
:1000C000102097A0895B5A0F830DC95F6035C2E984
:1000D00007E18C24671E458E086325F0150A17BEBC
:1000E0000694F778EA4B001AC53E5EFCDBCB75231D
:1000F0000B2039B12158ED953857AE147D88ABA847
:1001000044AF4AA547868B301BA64D929EE7536F9E
:10011000E57A3CD385E6DC695C29372EF528F46660
:100120008F3641193FA101D85049D14C84BBD059D9
:1001300012A9C8C4878274BC9F56A4646DC6ADBAA8
:10014000034034D9E2FA7C7B05CA2693767EFF52BF
:1001500055D4CFCE3BE32F103A11B6BD1C2ADFB7E2
:10016000AAD577F898022C9AA346DD99659BA72B10
:10017000AC09811627FD13626C6E4F71E0E8B2B9CD
:100180007068DAF661E4FB22F2C1EED2900CBFB3E4
:10019000A2F1513391EBF90EEF6B31C0D61FB5C709
:1001A0006A9DB854CCB07379322D7F0496FE8AECE8
:1001B000CD5DDE72431D1848F38D80C34E42D73D9E
:1001C0009CB4970000000000000000010101010143
:1001D00001010102020202020202030303030304FB
:1001E00004040505050505060606060707070808B1
:1001F000080808090A0A0A0A0B0B0C0C0C0C0D0D56
:100200000D0E0E0F0F0F10111111111212131414E5
:1002100014141516161717171819191A1A1B1B1C60
:100220001C1D1E1E1F1F20212122232324252526BD
:1002300026272829292A2B2C2D2D2E2F2F303132FD
:100240003334353636373838393A3B3C3D3E3F401B
:100250004142434445454647494A4B4C4D4E4F5019
:10026000515254555657595A5B5D5E5F60616264E6
:10027000656667696A6C6D6E6F7173757677797A8A
:100280007B7C7F808283858688898B8C8F919293FB
:100290009497999A9C9E9FA2A3A5A7A9ABADAEB037
:1002A000B3B4B6B9BABCBEC0C2C4C7C9CACDCFD137
:1002B000D3D6D8DADCDFE1E2E6E7EBECF0F1F5F6F5
:1002C000FAFBFF00000000FF00FF78FF00FFAAFF1D
:1002D00000FF3C00510411241FBECFEFD8E0DEBF69
:1002E000CDBF21E0A0E0B1E001C01D92A336B2076E
:1002F000E1F711E0CBE6D1E004C02197FE010E94B6
:100300006F0ACA36D107C9F70E9491050C948F0A6B
:100310000C9400003FB7F89480910501909106017C
:10032000A0910701B091080126B5A89B05C02F3FF9
:1003300019F00196A11DB11D3FBFBA2FA92F982F0B
:100340008827BC01CD01620F711D811D911D42E006
:10035000660F771F881F991F4A95D1F708958F92CE
:100360009F92AF92BF92CF92DF92EF92FF924B019A
:100370005C010E948A016B017C010E948A016C1958
:100380007D098E099F09683E734081059105A8F398
:1003900021E0821A9108A108B10888EEC80E83E016
:1003A000D81EE11CF11C81149104A104B10429F7A9
:1003B000FF90EF90DF90CF90BF90AF909F908F9085
:1003C0000895282F382F37FD2095229F020E20E018
:1003D000211D000C221F37FD20951124822F089526
:1003E000CF93DF93DC01EAEBF0E0849155968C9398
:1003F000559726EA30E0F9019491E92FF0E0EE0FED
:10040000FF1FE057FF4F459154911E965C934E930A
:100410001D97F9012491E22FF0E0EE0FFF1FEA573C
:10042000FF4FC591D4915096DC93CE931F97E881EE
:10043000E82BE8838EE290E011969C938E938CE6F5
:1004400097E013969C938E931297DF91CF91089526
:10045000EBE7F0E08491E7EBF0E09491E3EAF0E081
:10046000E491EE23C1F1882339F08330E9F090F470
:10047000813001F1823011F1F0E0EE0FFF1FE859F9
:10048000FF4FA591B491EC91E92329F181E080938C
:100490000B0108958730A9F08830C9F0843061F7E6
:1004A000809180008F7D03C0809180008F77809342
:1004B0008000E2CF84B58F7784BDDECF84B58F7D99
:1004C000FBCF8091B0008F778093B000D5CF809123
:1004D000B0008F7DF9CF10920B0108951F920F92FB
:1004E0000FB60F9211242F933F938F939F93AF9347
:1004F000BF938091010190910201A0910301B091FD
:1005000004013091000123E0230F2D3758F50196A7
:10051000A11DB11D20930001809301019093020160
:10052000A0930301B093040180910501909106010D
:10053000A0910701B09108010196A11DB11D809302
:10054000050190930601A0930701B0930801BF91A4
:10055000AF919F918F913F912F910F900FBE0F9070
:100560001F90189526E8230F0296A11DB11DD2CF2A
:10057000CF92DF92EF92FF92CF93DF93682F70E0DC
:1005800090E080E00E94FE0820E030E04FE753E476
:100590000E945B086B017C0124ED32ED42E55FE3D4
:1005A0000E948A0920E030E04FE753E40E948A0964
:1005B0000E94CD08E62FF0E0ED53FE4FD49120E0ED
:1005C00030E04FE753E4C701B6010E948A090E9458
:1005D000CD08E62FF0E0ED53FE4FC49120E030E06F
:1005E000A901C701B6010E948A0920E030E04FE767
:1005F00053E40E948A090E94CD08E62FF0E0ED53F3
:10060000FE4F64917C2F8D2FDF91CF91FF90EF9063
:10061000DF90CF9008952F923F924F925F926F920A
:100620007F928F929F92AF92BF92CF92DF92EF9282
:10063000FF920F931F93CF93DF93CDB7DEB76597EC
:100640000FB6F894DEBF0FBECDBF8C01FC01E1599F
:10065000FF4F8081980129593F4F3D832C83D90159
:10066000ED91FC919081265F3F4F3F832E83982B25
:10067000D9019C939081F801EE58FF4FF987E887E4
:100680008095892380837497D0801801FFE52F0E11
:10069000311CD101DC92F801EB59FF4FE080F18071
:1006A0003B97FD8BEC8BE114F10409F494C0F80145
:1006B000412C512C32018D2C912C9B8A8A8AC401A9
:1006C00001962481289FA001299F500D1124452FB8
:1006D0005527440E551E611C711C2581289FA001C1
:1006E000299F500D1124452F5527440E551E611C7E
:1006F000711C2681289FA001299F500D1124452F90
:100700005527440E551E611C711C3396AC88BD885C
:10071000AE16BF06B1F6552777FC5A95472D362DF4
:10072000252DF801A081B1810E94310A23E030E03B
:1007300040E050E00E940B0A29013A01F801A28131
:10074000B381411451046104710409F442C02EE1E3
:1007500030E00E942A0A28EE33E040E050E00E9498
:100760000B0A53014201820E931EA41EB51EC7013F
:100770000F2C000CAA0BBB0B88169906AA06BB0609
:1007800044F1B701621B730B072E000C880B990B09
:100790000E94FE086B017C018A889B88B401990C39
:1007A000880B990B0E94FE089B01AC01C701B601A2
:1007B0000E948A096B017C01C301B2010E94FE08FC
:1007C0009B01AC01C701B6010E945B080E94CD08E5
:1007D000D62ED101DC92F801B8016D587F4F8E0101
:1007E0000C5F1F4F55814681D1018C9190E001969D
:1007F000A481A89F9001A99F300D11243A83589F8E
:100800009001599F300D11243983489F9001499FD1
:10081000300D11243B838FB7DB018C93F894AE81AC
:10082000BF815C91A885B985FC90AC81BD81CD90DC
:10083000DC90CE010196DC012D91CD01D60138E08E
:100840005C9327FFFC92220F43E04A95F1F70000EA
:10085000FC923A95A9F70817190769F7DB018C9103
:100860008FBF33968C889D888E169F0609F0BACF6D
:1008700065960FB6F894DEBF0FBECDBFDF91CF9166
:100880001F910F91FF90EF90DF90CF90BF90AF90AE
:100890009F908F907F906F905F904F903F902F90A0
:1008A00008952F923F924F925F926F927F928F9214
:1008B0009F92AF92BF92CF92DF92EF92FF920F93EF
:1008C0001F93CF93DF93CDB7DEB72A970FB6F89477
:1008D000DEBF0FBECDBF8FEF80930C0110920E01D3
:1008E00010920D0110921801109217018FEF9FEFD7
:1008F000DC018093130190931401A0931501B09330
:10090000160183EC92E0512C412CFC01459155914C
:10091000659174912FEF421A520A04964F3FA9F73E
:10092000E3ECF2E085919591A591B491AD019A83A4
:100930003FEF398303EC602E02E0702E90E080E000
:1009400064E0660E711CF30185909590A590B490BB
:100950008E82B4E095958795BA95E1F7282FE82C1B
:10096000F12CF886EF82C82CC2941FE0C12230E13E
:100970004316510488F4E9806E2D0E2C000C770B81
:100980006817790744F03E2D3F3029F02E2D2F5F58
:10099000C21608F4C22EC982D12C30E02B2CEA2DCD
:1009A000892DC216D30650F4252EE42F8A81A50185
:1009B0009A82622F932F9601C62ED92EFA80EF2CA1
:1009C000F12CFB82EA8290E08E199F099695982F70
:1009D000882797958795E42EF12CFD82EC82F0E034
:1009E000EE19FF09F695FE2FEE27F795E795E52E10
:1009F000F12C312C2E183F083694322C22243794B7
:100A00002794A601421B530B5A874987452B21F493
:100A100041E050E05A87498769857A850E94F70945
:100A20008B01CF0169857A850E94F709FB01C1011D
:100A300069857A850E94F709000F111FDF01AA0F4F
:100A4000BB1F660F771F8A819B81982F88279B8306
:100A50008A838C819D81582F44279E2D8827F901F8
:100A6000EE0FFF1FE20FF31FED5CFE4FC216D30621
:100A700090F0EB80E08251839283EA80FB80E00E6D
:100A8000F11EFB82EA824A0F5B1F860F971F2F5FC2
:100A90003F4F3396EBCF8F8198859A82A5012E81A7
:100AA0002F3F09F04DCF8EE290E090931A01809392
:100AB000190180ED97E090931C0180931B0182E364
:100AC00080931D0180931E0110921F01109220013E
:100AD00010922101109222011092230110922501FF
:100AE000109224018FB78093320189E191E02A9618
:100AF0000FB6F894DEBF0FBECDBFDF91CF911F912F
:100B00000F91FF90EF90DF90CF90BF90AF909F90AC
:100B10008F907F906F905F904F903F902F900C94AC
:100B2000F001CF93DF93CDB7DEB7C957D1090FB628
:100B3000F894DEBF0FBECDBF789484B5826084BDCB
:100B400084B5816084BD85B5826085BD85B58160D1
:100B500085BD80916E00816080936E00109281004F
:100B6000809181008260809381008091810081600A
:100B700080938100809180008160809380008091CB
:100B8000B10084608093B1008091B0008160809357
:100B9000B00080917A00846080937A0080917A001E
:100BA000826080937A0080917A00816080937A00DD
:100BB00080917A00806880937A001092C100E7EB00
:100BC000F0E02491E3EAF0E084918823C9F090E01A
:100BD000880F991FFC01EA57FF4F45915491FC0182
:100BE000E057FF4FA591B4919FB7F894FA01308177
:100BF000822F809583238083EC91E22BEC939FBF1F
:100C0000EFEFF1E0E491E0931D0180912E01A091BE
:100C10002601B09127019C91982B909330019C91D3
:100C20008095892380933101E0931E0164E670E092
:100C300080E090E00E94AF0170E0C72E70E0D72EF8
:100C4000EEE2AE2EB12CF0ED8F2EF7E09F2EA2E358
:100C50003A2E80910B01882309F4A5C02EE230E0E2
:100C60003A83298380ED97E09C838B8382E3A0966F
:100C70008FAFA097A1968FAFA197A2961FAEA29714
:100C8000A3961FAEA397A4961FAEA497A5961FAEDA
:100C9000A597A6961FAEA697A8961FAE1EAEA897BC
:100CA0008FB7E5968FAFE597EAEBF0E04491E196D8
:100CB0004FAFE19786EA90E0FC015491E52FF0E018
:100CC000EE0FFF1FE057FF4F65917491AA967FAF1B
:100CD0006EAFAA97FC018491E82FF0E0EE0FFF1FA2
:100CE000EA57FF4FA591B491AC96BFAFAEAFAC97AA
:100CF000EC914E2B4C933A8329838CE697E09C83AE
:100D00008B83FE013196CE01855A9F4F1482158246
:100D1000168233968E179F07C9F7BB24BA943FE01B
:100D2000E32EF12C4EE1C42ED12C8701000F111FB0
:100D30000E0D1F1D41E050E04C0F5D1F040F151FED
:100D40008B2D0E94B802F801648375838683CE01DF
:100D500001960E940B03C6018E199F098C01000F9A
:100D6000111F080F191F41E050E04C0F5D1F040FC9
:100D7000151F8B2D0E94B802F8016483758386834A
:100D8000CE0101960E940B0363E070E080E090E0EA
:100D90000E94AF01F1E0EF1AF10827EEB20EE11464
:100DA000F10419F6FFCF0E942802BA82A9829C8220
:100DB0008B823D823E821F82188619861A861B8688
:100DC0001D861C868FB78A8FCE0101960E94F00186
:100DD0008091090190910A010A9690930A018093EB
:100DE00009018E89EE85FF859081982B988F9081DF
:100DF00080958923898F8D818E83F12CE12C209021
:100E0000090140910A012F2D3327F901EE53FF4FBD
:100E1000E491E40F8E2F90E0FC01EE53FF4F7490AD
:100E2000FC01ED53FF4F54902D533F4FF901249196
:100E3000420F50E0FA01EE53FF4F6490FA01ED5378
:100E4000FF4F2491EA962FAFEA971E2D1695022D9B
:100E50000695402E8E2D0E94E101E9968FAFE9970D
:100E6000822D0E94E10140E8410FE62DF0E0EE53B3
:100E7000FF4FE491342F202FE2FD02C0302F242FAA
:100E8000E0FD2195E1FD319535952595231FE72D51
:100E9000F0E0EE53FF4FE491312FE2FF02C0302F1C
:100EA000412EE0FD3195E1FD4194542D5595359548
:100EB000351F32170CF0DBC0231BE9965FADE997B5
:100EC000259F020E20E0211D1124320F0058EA96C2
:100ED0009FADEA97E92FF0E0EE53FF4FE491202F0A
:100EE000E2FF02C0242F402FE0FD4195E1FD219556
:100EF00025954595421FE52DF0E0EE53FF4FE49117
:100F0000E2FF03C0912F102F092FE0FD1195E1FDA5
:100F1000019505951595101F14170CF0B5C0411BD0
:100F2000E9962FADE997429F040E40E0411D112440
:100F3000912F940F39170CF0B4C0931B292F582F01
:100F4000259F020E20E0211D1124320F10E4130F03
:100F5000110F08F41FEF812F82958F701F70E82FFB
:100F6000EE0FE80FF0E0ED5CFE4F40813181228111
:100F7000112309F42BC033968F3011F4E3E3F1E031
:100F80001295107F612F6095542F569F050E50E0EB
:100F9000511D4081419F040E40E0411D450F532FDC
:100FA000569F050E50E0511D3181319F030E30E0F8
:100FB000311D350F522F569F050E50E0511D2281D5
:100FC000219F020E20E0211D250F11248E8190E02B
:100FD0000196489FB001499F700D1124E7967FAF9D
:100FE000E797389FA001399F500D1124E6965FAF17
:100FF000E697289FA001299F500D1124E8965FAF26
:10100000E8978FB78A8FF894588D698DAE85BF8524
:10101000FE01EB58FF4FCF010396219138E05C931E
:1010200027FF6C93220F43E04A95F1F700006C9381
:101030003A95A9F78E179F0781F78A8D8FBF59E1DF
:10104000E50EF11C82EEE81684E0F80609F0D7CE32
:101050006EE170E080E090E00E94AF010E94280203
:10106000C114D10409F4F5CD0E940000F2CD932FF4
:10107000921B292FE9965FADE997259F020E20E08C
:10108000211D1124321B22CF212F241BE9964FADA5
:10109000E997249F020E20E0211D1124912F921B1D
:1010A00049CF232F291B482F249F020E20E0211D0A
:1010B0001124321B4BCF0E946F080C9450090E94E0
:1010C000490958F00E94420940F029F45F3F29F095
:1010D0000C94390951110C9484090C943F090E9415
:1010E000610968F39923B1F3552391F3951B550BCF
:1010F000BB27AA2762177307840738F09F5F5F4FEB
:10110000220F331F441FAA1FA9F335D00E2E3AF029
:10111000E0E832D091505040E695001CCAF72BD041
:10112000FE2F29D0660F771F881FBB1F2617370792
:101130004807AB07B0E809F0BB0B802DBF01FF27C4
:1011400093585F4F3AF09E3F510578F00C9439095F
:101150000C9484095F3FE4F3983ED4F38695779529
:101160006795B795F7959F5FC9F7880F911D96957D
:10117000879597F90895E1E0660F771F881FBB1FD9
:10118000621773078407BA0720F0621B730B840B86
:10119000BA0BEE1F88F7E09508950E94690988F060
:1011A0009F5798F0B92F9927B751B0F0E1F0660F2B
:1011B000771F881F991F1AF0BA95C9F714C0B1306C
:1011C00091F00E948309B1E008950C948309672F80
:1011D000782F8827B85F39F0B93FCCF3869577959B
:1011E0006795B395D9F73EF4909580957095619584
:1011F0007F4F8F4F9F4F0895E89409C097FB3EF4AF
:1012000090958095709561957F4F8F4F9F4F992353
:10121000A9F0F92F96E9BB279395F69587957795D1
:101220006795B795F111F8CFFAF4BB0F11F460FF91
:101230001BC06F5F7F4F8F4F9F4F16C0882311F0E9
:1012400096E911C0772321F09EE8872F762F05C0FD
:10125000662371F096E8862F70E060E02AF09A9598
:10126000660F771F881FDAF7880F9695879597F98D
:10127000089597F99F6780E870E060E008959FEF18
:1012800080EC089500240A9416161706180609061D
:10129000089500240A9412161306140605060895EC
:1012A000092E0394000C11F4882352F0BB0F40F474
:1012B000BF2B11F460FF04C06F5F7F4F8F4F9F4FB4
:1012C000089557FD9058440F551F59F05F3F71F036
:1012D0004795880F97FB991F61F09F3F79F087959D
:1012E0000895121613061406551FF2CF4695F1DF26
:1012F00008C0161617061806991FF1CF86957105B6
:10130000610508940895E894BB2766277727CB01E9
:1013100097F908950E949D090C9450090E94420972
:1013200038F00E94490920F0952311F00C943909F6
:101330000C943F0911240C9484090E94610970F3F4
:10134000959FC1F3950F50E0551F629FF001729F6A
:10135000BB27F00DB11D639FAA27F00DB11DAA1F79
:10136000649F6627B00DA11D661F829F2227B00DC6
:10137000A11D621F739FB00DA11D621F839FA00D51
:10138000611D221F749F3327A00D611D231F849FA1
:10139000600D211D822F762F6A2F11249F575040F8
:1013A0009AF0F1F088234AF0EE0FFF1FBB1F661F73
:1013B000771F881F91505040A9F79E3F510580F03C
:1013C0000C9439090C9484095F3FE4F3983ED4F3FC
:1013D000869577956795B795F795E7959F5FC1F7E0
:1013E000FE2B880F911D9695879597F9089597FB89
:1013F000072E16F4009407D077FD09D00E94390A11
:1014000007FC05D03EF4909581959F4F0895709507
:1014100061957F4F0895052E97FB1EF400940E945E
:10142000220A57FD07D00E944D0A07FC03D04EF454
:101430000C94220A50954095309521953F4F4F4F7F
:101440005F4F089590958095709561957F4F8F4F70
:101450009F4F08950E94750AB7FF0895821B930B52
:101460000895B7FF0C94840A0E94840A821B930B90
:101470000895AA1BBB1B51E107C0AA1FBB1FA617DB
:10148000B70710F0A61BB70B881F991F5A95A9F72D
:1014900080959095BC01CD010895A1E21A2EAA1B5A
:1014A000BB1BFD010DC0AA1FBB1FEE1FFF1FA21714
:1014B000B307E407F50720F0A21BB30BE40BF50B11
:1014C000661F771F881F991F1A9469F7609570959A
:1014D000809590959B01AC01BD01CF010895EE0F61
:1014E000FF1F0590F491E02D0994A29FB001B39FD6
:1014F000C001A39F700D811D1124911DB29F700D1D
:10150000811D1124911D08950E94750AA59F900DBB
:10151000B49F900DA49F800D911D11240895F894FF
:02152000FFCFFB
:00000001FF
